:100000000A128A11662B00308A000408840A8207CB
:10001000003445346E3474346534723420345034D2
:1000200061347334733477346F34723464343A34F3
:1000300000344134633463346534733473342034AE
:100040004734723461346E3474346534643400344B
:10005000573472346F346E34673420345034613422
:100060007334733477346F347234643400344E3400
:1000700065347734203450346134733473347734D6
:100080006F34723464343A340034413444344D347F
:1000900049344E3420344D344F34443445340034E4
:0E00A0005334613476346534643421340034D2
:1006B400F0007008831203178D00831603170C14BF
:1006C400831203170C080800FB01FC01FD01A001C3
:1006D400A101A201A301A401A501A601A701A801EA
:1006E400A901AA01AB01AC0183010A128A11342CBD
:1006F400F1007C2B831603178C18812B822B7C2B07
:100704007108831203178D0070088C008316031779
:100714000C158B1355308D00AA308D008C148B175B
:100724000C11080002300A128A11D2230A128A110B
:1007340028300A128A11D2230A128A110C300A12A2
:100744008A11D2230A128A1106300A128A11D2237C
:100754000A128A1101300A128A11D2230A128A114A
:100764000800F400C52B740884000A128A110320BF
:100774000A128A110A128A1103240A128A110130F8
:10078400F3007308F407740884000A128A11032022
:100794000A128A110038031DD02BD12BB52B080067
:1007A400F2007208F03983120313880008108810CD
:1007B40008150330F1009730F000F00BDF2BF10B3C
:1007C400DF2BE42B8312031308117208F0000330AB
:1007D4000310F00DFF3E031DEA2B0310700DF039DA
:1007E40088000810881008150330F1009730F000D5
:1007F400F00BFA2BF10BFA2BFF2B831203130811C6
:100804000800F2007208F0398312031388000814F8
:10081400881008150330F1009730F000F00B102C0D
:10082400F10B102C152C8312031308117208F0001D
:1008340003300310F00DFF3E031D1B2C0310700D3D
:10084400F03988000814881008150330F100973037
:10085400F000F00B2B2CF10B2B2C302C83120313F8
:1008640008110800831603138801F130860007106D
:10087400FF308312031386008801071006308316A5
:1008840003139F007F3083120313AA050030AB05C6
:100894000A128A1194230A128A110A300A128A113E
:1008A4005A230A128A11AA3A0319592C5A2C8C2C4D
:1008B4003130F6007608F00000300A128A117A23EB
:1008C4000A128A113230F6007608F00001300A125A
:1008D4008A117A230A128A113330F6007608F0005E
:1008E40002300A128A117A230A128A113430F6006D
:1008F4007608F00003300A128A117A230A128A1148
:10090400AA30F6007608F0000A300A128A117A2317
:100914000A128A118B170B168316031301138B10FB
:100924007D08031D962C1E2D01300A128A11D22334
:100934000A128A113D300A128A11B3230A128A114B
:100944000830F8009630F7000930F600F60BA82CB2
:10095400F70BA82CF80BA82C640001300A128A119A
:10096400D2230A128A112F300A128A11B3230A12CF
:100974008A11C0300A128A11D2230A128A110A1269
:100984008A11E4250A128A110030F9000030FA00B5
:100994007A08803AFE0080307E02031DD32C043096
:1009A4007902031CD62CD72CD82CF92C7908203E9C
:1009B400840083130008F6007608F00079080A1210
:1009C4008A117A230A128A110130F9070318FA0AE4
:1009D4000030FA077A08803AFE0080307E02031D58
:1009E400F52C04307902031CF82CF92CD82C013096
:1009F4000A128A11D2230A128A1148300A128A1161
:100A0400B3230A128A110830F8009630F70009302F
:100A1400F600F60B0B2DF70B0B2DF80B0B2D6400CA
:100A24000310003003180130FD00031000300318D8
:100A3400013083120313AC0001300A128A11D2234D
:100A44000A128A1101300A128A11B3230A128A1176
:100A5400C0300A128A11D2230A128A110A128A1188
:100A6400E4250A128A1100300A128A115A230A1242
:100A74008A11831203132006031D412D422D8B2D51
:100A840001300A128A115A230A128A11831203139B
:100A94002106031D4E2D4F2D8B2D02300A128A1173
:100AA4005A230A128A11831203132206031D5B2D93
:100AB4005C2D8B2D03300A128A115A230A128A11D3
:100AC400831203132306031D682D692D8B2D01301A
:100AD4000A128A11D2230A128A1111300A128A11B7
:100AE400B3230A128A110310003003180130831251
:100AF4000313AC0007100B30F8001C30F700633010
:100B0400F600F60B832DF70B832DF80B832D640071
:100B1400E02D0130F600760883120313AC07013090
:100B24000A128A11D2230A128A1120300A128A1157
:100B3400B3230A128A110830F8009630F7000930FE
:100B4400F600F60BA32DF70BA32DF80BA32D6400D1
:100B5400DA2D8312031307140230F8000330F70070
:100B6400BA30F600F60BB42DF70BB42DF80BB42DF8
:100B74008312031307100230F8000330F700BA3071
:100B8400F600F60BC32DF70BC32DF80BC32D7D0810
:100B9400031DCD2DDA2D0310003003180130FD00A4
:100BA400031000300318013083120313AC00E02D4E
:100BB40003302C020318DF2DE02DAB2D922C0A12EA
:100BC4008A1100280030FB000030FC00F62F83124D
:100BD4000313861506118610061EF12DF22D172E0D
:100BE400F32D061AF62DF72DF32D2A300A128A1149
:100BF40003240A128A113130F3007B08203E84005A
:100C04007308831380000130FB070318FC0A0030CB
:100C1400FC070230F5000330F400BA30F300F30BA4
:100C2400112EF40B112EF50B112E83120313861EB5
:100C34001C2E1D2E422E1E2E861A212E222E1E2ED4
:100C44002A300A128A1103240A128A113430F3005A
:100C54007B08203E84007308831380000130FB0767
:100C64000318FC0A0030FC070230F5000330F400DE
:100C7400BA30F300F30B3C2EF40B3C2EF50B3C2E58
:100C840083120313061F472E482E6D2E492E061B72
:100C94004C2E4D2E492E2A300A128A1103240A1290
:100CA4008A113730F3007B08203E840073088313D5
:100CB40080000130FB070318FC0A0030FC070230F7
:100CC400F5000330F400BA30F300F30B672EF40B95
:100CD400672EF50B672E83120313861F722E732E55
:100CE400982E742E861B772E782E742E2A300A1294
:100CF4008A1103240A128A112A30F3007B08203E49
:100D040084007308831380000130FB070318FC0A76
:100D14000030FC070230F5000330F400BA30F30071
:100D2400F30B922EF40B922EF50B922E83120313D7
:100D3400861106158610061EA02EA12EC62EA22EE2
:100D4400061AA52EA62EA22E2A300A128A110324D0
:100D54000A128A113230F3007B08203E84007308A3
:100D6400831380000130FB070318FC0A0030FC07E2
:100D74000230F5000330F400BA30F300F30BC02E58
:100D8400F40BC02EF50BC02E83120313861ECB2E3C
:100D9400CC2EF12ECD2E861AD02ED12ECD2E2A3049
:100DA4000A128A1103240A128A113530F3007B08CF
:100DB400203E84007308831380000130FB0703186E
:100DC400FC0A0030FC070230F5000330F400BA30AE
:100DD400F300F30BEB2EF40BEB2EF50BEB2E83123F
:100DE4000313061FF62EF72E1C2FF82E061BFB2EC0
:100DF400FC2EF82E2A300A128A1103240A128A11B0
:100E04003830F3007B08203E84007308831380008D
:100E14000130FB070318FC0A0030FC070230F50020
:100E24000330F400BA30F300F30B162FF40B162F33
:100E3400F50B162F83120313861F212F222F472F02
:100E4400232F861B262F272F232F2A300A128A119D
:100E540003240A128A113030F3007B08203E8400F8
:100E64007308831380000130FB070318FC0A003069
:100E7400FC070230F5000330F400BA30F300F30B42
:100E8400412FF40B412FF50B412F831203138611CD
:100E940006118614061E4F2F502F752F512F061A38
:100EA400542F552F512F2A300A128A1103240A1263
:100EB4008A113330F3007B08203E840073088313C7
:100EC40080000130FB070318FC0A0030FC070230E5
:100ED400F5000330F400BA30F300F30B6F2FF40B7A
:100EE4006F2FF50B6F2F83120313861E7A2F7B2F20
:100EF400A02F7C2F861A7F2F802F7C2F2A300A1256
:100F04008A1103240A128A113630F3007B08203E2A
:100F140084007308831380000130FB070318FC0A64
:100F24000030FC070230F5000330F400BA30F3005F
:100F3400F30B9A2FF40B9A2FF50B9A2F83120313AA
:100F4400061FA52FA62FCB2FA72F061BAA2FAB2F2B
:100F5400A72F2A300A128A1103240A128A1139305F
:100F6400F3007B08203E8400730883138000013063
:100F7400FB070318FC0A0030FC070230F5000330BD
:100F8400F400BA30F300F30BC52FF40BC52FF50BA7
:100F9400C52F83120313861FD02FD12FF62FD22FE4
:100FA400861BD52FD62FD22F2A300A128A1103245A
:100FB4000A128A112330F3007B08203E8400730850
:100FC400831380000130FB070318FC0A0030FC0780
:100FD4000230F5000330F400BA30F300F30BF02FC5
:100FE400F40BF02FF50BF02F00307C0204300319C2
:0C0FF4007B02031CFE2FFF2FE92D0800DC
:00000001FF
